:100000000C942A000C94FF000C94FF000C94FF0049
:100010000C94FF000C94FF000C94FF000C94FF0064
:100020000C94FF000C94FF000C94FF000C94FF0054
:100030000C94FF000C94FF000C94FF000C94FF0044
:100040000C94FF000C94FF000C94FF000C94FF0034
:100050000C94FF0011241FBECFE5D8E0DEBFCDBF5A
:0C0060000E9436000C94F400F894FFCFCE
:10006C00CF93DF93CDB7DEB78AE390E027E330E0A0
:10007C004FEFF9014083FC01408381E390E022E0E3
:10008C00FC0120830E9453000E94920081E40E9494
:10009C00CF0082E40E94CF00FFCFCF93DF93CDB788
:1000AC00DEB78BE290E0FC0110828AE290E028E15E
:1000BC00FC01208380E490E026E8FC01208389E2A7
:1000CC0090E023E3FC01208380E490E0FC011082AB
:1000DC000000DF91CF910895CF93DF930F92CDB7AE
:1000EC00DEB7898300008BE290E0FC018081882FD1
:1000FC0090E080729927892BB1F38BE290E020E29B
:10010C00FC0120838CE290E02981FC01208300001B
:10011C000F90DF91CF910895CF93DF93CDB7DEB7DA
:10012C0084E390E0FC01108282E290E020EFFC017D
:10013C00208386E590E024E4FC01208386E590E0B2
:10014C0026E530E0F90120812068FC0120830000C5
:10015C0086E590E0FC0180818823D4F70000DF91D4
:10016C00CF910895CF93DF93CDB7DEB786E590E0BE
:10017C0024ECFC012083000086E590E0FC018081EA
:10018C008823D4F783E290E0FC018081DF91CF914A
:10019C000895CF93DF930F92CDB7DEB7898383E2B7
:1001AC0090E02981FC01208386E590E024E4FC01A9
:1001BC00208386E590E026E530E0F9012081206877
:1001CC00FC012083000086E590E0FC0180818823FF
:0C01DC00D4F700000F90DF91CF91089540
:1001E800EC010E9404010E940301CE010E94050156
:0601F800CE010E9401018E
:0401FE000C9400005D
:040202000E94340022
:02020600089559
:02020800089557
:02020A00089555
:00000001FF
