:0400000092EF03F088
:100600000000000E956E180E946E240EAC6E900EC7
:10061000AB6E810EAF6E000E026E000E036E000E0A
:10062000046E000E056E010E0226000E0322042247
:10063000052205500DE1E00E025C930E0358040EF6
:100640000458D8A026EF03F028EF03F013EF03F0CF
:1006500089EC03F080EC03F0F10E6BEC03F0000E7C
:1006600043EC03F0066E06505FEC03F0010E43EC22
:1006700003F0066E06505FEC03F077EC03F03FEFFB
:1006800003F000EF00F0016EC586C5B64AEF03F037
:100690004CEF03F045EF03F001B051EF03F054EFDE
:1006A00003F0C58A55EF03F0C59AC588C5B85BEF5E
:1006B00003F05DEF03F056EF03F0C9501200016E36
:1006C0009EA865EF03F067EF03F060EF03F001C051
:1006D000ADFF9E981200016E9E9601C0C9FF9EA6B6
:1006E00074EF03F076EF03F06FEF03F01200C584B0
:1006F000C5B47DEF03F07FEF03F078EF03F0120055
:10070000C580C5B086EF03F088EF03F081EF03F0FA
:100710001200000EC76E280EC66E000EC56E310E9A
:0A072000C86E1200000101EF03F0A3
:00000001FF
